{
  "contractName": "TicTacToe",
  "abi": [
    {
      "inputs": [],
      "payable": false,
      "stateMutability": "nonpayable",
      "type": "constructor"
    },
    {
      "constant": false,
      "inputs": [],
      "name": "initializeBox",
      "outputs": [],
      "payable": false,
      "stateMutability": "nonpayable",
      "type": "function"
    },
    {
      "constant": false,
      "inputs": [
        {
          "internalType": "uint256[3][3]",
          "name": "boxReceived",
          "type": "uint256[3][3]"
        }
      ],
      "name": "saveCurrentMove",
      "outputs": [],
      "payable": false,
      "stateMutability": "nonpayable",
      "type": "function"
    },
    {
      "constant": true,
      "inputs": [],
      "name": "getCurrentBox",
      "outputs": [
        {
          "internalType": "uint256[3][3]",
          "name": "",
          "type": "uint256[3][3]"
        }
      ],
      "payable": false,
      "stateMutability": "view",
      "type": "function"
    }
  ],
  "bytecode": "0x608060405234801561001057600080fd5b5061001f61002460201b60201c565b6101bf565b60405180606001604052806040518060600160405280600060ff168152602001600060ff168152602001600060ff1681525081526020016040518060600160405280600060ff168152602001600060ff168152602001600060ff1681525081526020016040518060600160405280600060ff168152602001600060ff168152602001600060ff1681525081525060009060036100c19291906100c4565b50565b82600380028101928215610103579160200282015b82811115610102578251829060036100f2929190610114565b50916020019190600301906100d9565b5b5090506101109190610159565b5090565b8260038101928215610148579160200282015b82811115610147578251829060ff16905591602001919060010190610127565b5b5090506101559190610185565b5090565b61018291905b8082111561017e576000818161017591906101aa565b5060030161015f565b5090565b90565b6101a791905b808211156101a357600081600090555060010161018b565b5090565b90565b50600081556001016000815560010160009055565b61049f806101ce6000396000f3fe608060405234801561001057600080fd5b50600436106100415760003560e01c80631148c1bc14610046578063c4b65922146100af578063f74508711461014e575b600080fd5b61004e610158565b604051808260036000925b8184101561009f5782846020020151600360200280838360005b8381101561008e578082015181840152602081019050610073565b505050509050019260010192610059565b9250505091505060405180910390f35b61014c60048036036101208110156100c657600080fd5b81019080806101200190600380602002604051908101604052809291906000905b8282101561013b578382606002016003806020026040519081016040528092919082600360200280828437600081840152601f19601f820116905080830192505050505050815260200190600101906100e7565b5050505091929192905050506101db565b005b6101566101f0565b005b610160610290565b6000600380602002604051908101604052809291906000905b828210156101d2578382600302016003806020026040519081016040528092919082600380156101be576020028201915b8154815260200190600101908083116101aa575b505050505081526020019060010190610179565b50505050905090565b8060009060036101ec9291906102bd565b5050565b60405180606001604052806040518060600160405280600060ff168152602001600060ff168152602001600060ff1681525081526020016040518060600160405280600060ff168152602001600060ff168152602001600060ff1681525081526020016040518060600160405280600060ff168152602001600060ff168152602001600060ff16815250815250600090600361028d92919061030d565b50565b60405180606001604052806003905b6102a761035d565b81526020019060019003908161029f5790505090565b826003800281019282156102fc579160200282015b828111156102fb578251829060036102eb92919061037f565b50916020019190600301906102d2565b5b50905061030991906103bf565b5090565b8260038002810192821561034c579160200282015b8281111561034b5782518290600361033b9291906103eb565b5091602001919060030190610322565b5b50905061035991906103bf565b5090565b6040518060600160405280600390602082028038833980820191505090505090565b82600381019282156103ae579160200282015b828111156103ad578251825591602001919060010190610392565b5b5090506103bb9190610430565b5090565b6103e891905b808211156103e457600081816103db9190610455565b506003016103c5565b5090565b90565b826003810192821561041f579160200282015b8281111561041e578251829060ff169055916020019190600101906103fe565b5b50905061042c9190610430565b5090565b61045291905b8082111561044e576000816000905550600101610436565b5090565b90565b5060008155600101600081556001016000905556fea265627a7a7231582005aeb64fca2c0f8afa4d69abef14f4cb08451199bb4280f5099347c2e7d5e3bf64736f6c634300050c0032",
  "source": "pragma solidity >=0.4.21 <0.7.0;\r\n\r\ncontract TicTacToe {\r\n\r\n  // initialize the box as 3 x 3 Array of unsigned integers    \r\n  uint [3][3] box;    \r\n  \r\n  // initialize the box when the contract is deployed\r\n  constructor() public {\r\n      initializeBox();\r\n  }\r\n  \r\n  \r\n  // initialize the box the O values for each cell\r\n  function initializeBox() public {\r\n      /* this section can be written using for loop however for simplicity and \r\n         gas consumption it is omitted \r\n      */\r\n      \r\n      box = [[0, 0, 0], [0, 0, 0], [0, 0, 0]];\r\n  }\r\n  \r\n  // save current move by user / computer  \r\n  function saveCurrentMove(uint [3][3] memory boxReceived) public {\r\n      box = boxReceived;\r\n  }\r\n  \r\n  // get the current box\r\n  function getCurrentBox() public view returns(uint [3][3] memory) {\r\n      return box;\r\n  }\r\n  \r\n}",
  "sourcePath": "C:/Users/ANiJiT/Documents/truffle-react-simple-tic-tac-toe-dapp/contracts/TicTacToe.sol",
  "compiler": {
    "name": "solc",
    "version": "0.5.12+commit.7709ece9.Emscripten.clang"
  },
  "schemaVersion": "3.0.19",
  "updatedAt": "2020-02-02T18:24:55.346Z",
  "networkType": "ethereum",
  "devdoc": {
    "methods": {}
  },
  "userdoc": {
    "methods": {}
  }
}