{
  "contractName": "TicTacToe",
  "abi": [
    {
      "inputs": [],
      "payable": false,
      "stateMutability": "nonpayable",
      "type": "constructor"
    },
    {
      "constant": false,
      "inputs": [],
      "name": "initializeBox",
      "outputs": [],
      "payable": false,
      "stateMutability": "nonpayable",
      "type": "function"
    },
    {
      "constant": false,
      "inputs": [
        {
          "internalType": "uint256",
          "name": "rowVal",
          "type": "uint256"
        },
        {
          "internalType": "uint256",
          "name": "colVal",
          "type": "uint256"
        },
        {
          "internalType": "uint256",
          "name": "move",
          "type": "uint256"
        }
      ],
      "name": "saveCurrentMove",
      "outputs": [],
      "payable": false,
      "stateMutability": "nonpayable",
      "type": "function"
    },
    {
      "constant": false,
      "inputs": [
        {
          "internalType": "string",
          "name": "result",
          "type": "string"
        }
      ],
      "name": "saveResult",
      "outputs": [],
      "payable": false,
      "stateMutability": "nonpayable",
      "type": "function"
    },
    {
      "constant": true,
      "inputs": [],
      "name": "getCurrentBox",
      "outputs": [
        {
          "internalType": "uint256[3][3]",
          "name": "",
          "type": "uint256[3][3]"
        }
      ],
      "payable": false,
      "stateMutability": "view",
      "type": "function"
    },
    {
      "constant": true,
      "inputs": [],
      "name": "getGameResult",
      "outputs": [
        {
          "internalType": "string",
          "name": "",
          "type": "string"
        }
      ],
      "payable": false,
      "stateMutability": "view",
      "type": "function"
    }
  ],
  "bytecode": "0x608060405234801561001057600080fd5b5061001f61002460201b60201c565b61028b565b60405180606001604052806040518060600160405280600060ff168152602001600060ff168152602001600060ff1681525081526020016040518060600160405280600060ff168152602001600060ff168152602001600060ff1681525081526020016040518060600160405280600060ff168152602001600060ff168152602001600060ff1681525081525060009060036100c1929190610110565b506040518060400160405280600381526020017f54424400000000000000000000000000000000000000000000000000000000008152506009908051906020019061010d929190610160565b50565b8260038002810192821561014f579160200282015b8281111561014e5782518290600361013e9291906101e0565b5091602001919060030190610125565b5b50905061015c9190610225565b5090565b828054600181600116156101000203166002900490600052602060002090601f016020900481019282601f106101a157805160ff19168380011785556101cf565b828001600101855582156101cf579182015b828111156101ce5782518255916020019190600101906101b3565b5b5090506101dc9190610251565b5090565b8260038101928215610214579160200282015b82811115610213578251829060ff169055916020019190600101906101f3565b5b5090506102219190610251565b5090565b61024e91905b8082111561024a57600081816102419190610276565b5060030161022b565b5090565b90565b61027391905b8082111561026f576000816000905550600101610257565b5090565b90565b50600081556001016000815560010160009055565b6106a08061029a6000396000f3fe608060405234801561001057600080fd5b50600436106100575760003560e01c80631148c1bc1461005c5780632564a173146100c5578063877db67d14610107578063b3fb14ad146101c2578063f745087114610245575b600080fd5b61006461024f565b604051808260036000925b818410156100b55782846020020151600360200280838360005b838110156100a4578082015181840152602081019050610089565b50505050905001926001019261006f565b9250505091505060405180910390f35b610105600480360360608110156100db57600080fd5b810190808035906020019092919080359060200190929190803590602001909291905050506102d2565b005b6101c06004803603602081101561011d57600080fd5b810190808035906020019064010000000081111561013a57600080fd5b82018360208201111561014c57600080fd5b8035906020019184600183028401116401000000008311171561016e57600080fd5b91908080601f016020809104026020016040519081016040528093929190818152602001838380828437600081840152601f19601f8201169050808301925050505050505091929192905050506102f9565b005b6101ca610313565b6040518080602001828103825283818151815260200191508051906020019080838360005b8381101561020a5780820151818401526020810190506101ef565b50505050905090810190601f1680156102375780820380516001836020036101000a031916815260200191505b509250505060405180910390f35b61024d6103b5565b005b6102576104a1565b6000600380602002604051908101604052809291906000905b828210156102c9578382600302016003806020026040519081016040528092919082600380156102b5576020028201915b8154815260200190600101908083116102a1575b505050505081526020019060010190610270565b50505050905090565b80600084600381106102e057fe5b6003020183600381106102ef57fe5b0181905550505050565b806009908051906020019061030f9291906104ce565b5050565b606060098054600181600116156101000203166002900480601f0160208091040260200160405190810160405280929190818152602001828054600181600116156101000203166002900480156103ab5780601f10610380576101008083540402835291602001916103ab565b820191906000526020600020905b81548152906001019060200180831161038e57829003601f168201915b5050505050905090565b60405180606001604052806040518060600160405280600060ff168152602001600060ff168152602001600060ff1681525081526020016040518060600160405280600060ff168152602001600060ff168152602001600060ff1681525081526020016040518060600160405280600060ff168152602001600060ff168152602001600060ff16815250815250600090600361045292919061054e565b506040518060400160405280600381526020017f54424400000000000000000000000000000000000000000000000000000000008152506009908051906020019061049e9291906104ce565b50565b60405180606001604052806003905b6104b861059e565b8152602001906001900390816104b05790505090565b828054600181600116156101000203166002900490600052602060002090601f016020900481019282601f1061050f57805160ff191683800117855561053d565b8280016001018555821561053d579182015b8281111561053c578251825591602001919060010190610521565b5b50905061054a91906105c0565b5090565b8260038002810192821561058d579160200282015b8281111561058c5782518290600361057c9291906105e5565b5091602001919060030190610563565b5b50905061059a919061062a565b5090565b6040518060600160405280600390602082028038833980820191505090505090565b6105e291905b808211156105de5760008160009055506001016105c6565b5090565b90565b8260038101928215610619579160200282015b82811115610618578251829060ff169055916020019190600101906105f8565b5b50905061062691906105c0565b5090565b61065391905b8082111561064f57600081816106469190610656565b50600301610630565b5090565b90565b5060008155600101600081556001016000905556fea265627a7a72315820614a9740bc33e2dc3f693b5a495a31e02d853425e84a87ae987ea9209020a1da64736f6c634300050c0032",
  "source": "pragma solidity >=0.4.21 <0.7.0;\r\n\r\ncontract TicTacToe {\r\n\r\n  // initialize the box as 3 x 3 Array of unsigned integers    \r\n  uint [3][3] box;    \r\n  string gameResult;\r\n\r\n  // initialize the box when the contract is deployed\r\n  constructor() public {\r\n      initializeBox();\r\n  }\r\n  \r\n  \r\n  // initialize the box the O values for each cell\r\n  function initializeBox() public {\r\n      /* this section can be written using for loop however for simplicity and \r\n         gas consumption it is omitted \r\n      */\r\n      \r\n      box = [[0, 0, 0], [0, 0, 0], [0, 0, 0]];\r\n      gameResult = 'TBD';\r\n  }\r\n  \r\n  // save current move by user / computer  \r\n  function saveCurrentMove(uint rowVal, uint colVal, uint move) public {\r\n      box[rowVal][colVal] = move;\r\n  }\r\n\r\n  // save the result of the game\r\n  function saveResult (string memory result) public {\r\n    gameResult = result;\r\n  }\r\n  \r\n  \r\n  // get the current box\r\n  function getCurrentBox() public view returns(uint [3][3] memory) {\r\n      return box;\r\n  }\r\n\r\n  // get the game RESULT\r\n  function getGameResult() public view returns(string memory) {\r\n      return gameResult;\r\n  }\r\n  \r\n}",
  "sourcePath": "C:/Users/ANiJiT/Documents/truffle-react-simple-tic-tac-toe-dapp/contracts/TicTacToe.sol",
  "compiler": {
    "name": "solc",
    "version": "0.5.12+commit.7709ece9.Emscripten.clang"
  },
  "schemaVersion": "3.0.19",
  "updatedAt": "2020-02-03T13:23:54.286Z",
  "networkType": "ethereum",
  "devdoc": {
    "methods": {}
  },
  "userdoc": {
    "methods": {}
  }
}